:100000000C9434000C9449000C9449000C94490061
:100010000C9449000C9449000C9449000C9449003C
:100020000C9449000C9449000C9449000C9449002C
:100030000C9449000C9449000C9449000C9449001C
:100040000C9449000C9449000C9449000C9449000C
:100050000C9449000C9449000C9449000C944900FC
:100060000C9449000C94490011241FBECFEFD8E036
:10007000DEBFCDBF11E0A0E0B1E0E0E3F2E002C0FE
:1000800005900D92AE31B107D9F70E94C6000C94CD
:1000900016010C940000F999FECF92BD81BDF89A2B
:1000A00080B50895E0ECF0E080818260808310925A
:1000B000C50080E18093C400E2ECF0E080818083A1
:1000C0008081808380818083808186608083E1EC71
:1000D000F0E080818861808308959091C00095FF51
:1000E000FCCF8093C60008958091C00087FFFCCFAD
:1000F0008091C6000895CF93DF93EC018991882306
:1001000019F00E946D00FACFDF91CF910895CF933F
:10011000C82FE82FE295EF70F0E0ED5FFE4F808191
:100120000E946D00CF70EC2FF0E0ED5FFE4F8081FC
:10013000CF910C946D000F931F93CF93DF930AE040
:1001400010E08A30910538F4805DDF91CF911F91E6
:100150000F910C946D00B8010E940201D82FC92F95
:10016000CB010E949B008D2F9C2FEBCFCF93DF9371
:10017000EC0184E191E00E947B00CE010E947B00B3
:1001800080E091E0DF91CF910C947B00FF920F9380
:100190001F93CF93DF930E945200C0E0D0E080E035
:1001A0000E94870080E00E9487008D2F0E948700B8
:1001B0008C2F0E94870080E20E946D008E0181E1F9
:1001C000F82EFA94FF2069F0C8010E944B000E94AB
:1001D000870000FF03C080E20E946D000F5F1F4F89
:1001E000F0CF609680E091E00E947B00C11584E032
:1001F000D807A9F680E090E0DF91CF911F910F9191
:10020000FF900895AA1BBB1B51E107C0AA1FBB1F8B
:10021000A617B70710F0A61BB70B881F991F5A9592
:10022000A9F780959095BC01CD010895F894FFCF72
:100230000D0A0030313233343536373839414243D4
:0E024000444546005B44454255475D200000A2
:00000001FF
