:100000000C9434000C9449000C9449000C94490061
:100010000C9449000C9449000C9449000C9449003C
:100020000C9449000C9449000C9449000C9449002C
:100030000C9449000C9449000C9449000C9449001C
:100040000C9449000C9449000C9449000C9449000C
:100050000C9449000C9449000C9449000C944900FC
:100060000C9449000C94490011241FBECFEFD8E036
:10007000DEBFCDBF11E0A0E0B1E0E6E7F5E002C0F1
:1000800005900D92A836B107D9F70E9422020C9470
:10009000B9020C9400000F931F93CF93DF938C0150
:1000A000C0E00E941C01D82F8D30A9F08F3741F499
:1000B000CC2369F080E091E00E942301C15007C089
:1000C000C33628F4F801EC0FF11D8083CF5F8D2F2C
:1000D0000E941501E6CFF801EC0FF11D10828FE2AE
:1000E00091E00E942301C801DF91CF911F910F91F0
:1000F0000895CF93DF939C01FB0190E0492F50E0DE
:10010000D901A40FB51F8C91C82FCF7D608171815B
:10011000CC2331F0DB01A40FB51F8C939F5FEECF92
:10012000EB01C40FD51F18828C91811103C084E0AC
:1001300091E05AC081E0890FD901A80FB11D8C91BF
:10014000823219F088E091E04FC09E5F60E0D901F3
:10015000A90FB11D8C91462F50E0C281D38181112E
:1001600007C0C40FD51F18828C9181110AC00DC021
:100170008232B9F3DE01A40FB51F8C939F5F6F5FCE
:10018000E6CF11968C91803219F08CE091E02CC072
:1001900082E0890FD901A80FB11D8C91823219F02C
:1001A00080E191E021C09D5F60E0D901A90FB11D00
:1001B0008C91462F50E0A481B5819F5F81110DC0C5
:1001C000FD01E40FF51F1082F901E90FF11D808197
:1001D000882369F084E191E007C0823289F3A40F9B
:1001E000B51F8C936F5FE1CF0E94230181E0DF9107
:1001F000CF910895E0ECF0E08081826080831092DE
:10020000C50080E18093C400E2ECF0E0808180834F
:100210008081808380818083808186608083E1EC1F
:10022000F0E080818861808308959091C00095FFFF
:10023000FCCF8093C60008958091C00087FFFCCF5B
:100240008091C6000895CF93DF93EC0189918823B4
:1002500019F00E941501FACFDF91CF910895CF9345
:10026000C82FE82FE295EF70F0E0EE5BFE4F808143
:100270000E941501CF70EC2FF0E0EE5BFE4F808105
:10028000CF910C941501CF92DF92EF92FF920F93D2
:100290001F93CF93DF932AE0C22ED12CE12CF12CB7
:1002A0006A3071058105910560F480E3860FDF9166
:1002B000CF911F910F91FF90EF90DF90CF900C9412
:1002C0001501A70196010E9497028B01D82FC92F13
:1002D000CA01B9010E944301B8018D2F9C2FE0CFC4
:1002E000CF93DF93EC0183E591E00E942301CE01DF
:1002F0000E9423018FE291E0DF91CF910C942301C2
:10030000F999FECF92BD81BDF89A80B50895F9990B
:10031000FECF92BD81BD60BDFA9AF99A0895AF9261
:10032000BF92CF92DF92FF920F931F93CF93DF93F1
:10033000EC016B015A01CC15DD05C8F580E00E9487
:100340002F0180E00E942F018D2F0E942F018C2F02
:100350000E942F0180E20E9415018E0181E1F82E9A
:10036000FA94FF20F1F00A151B0571F48CE591E079
:100370000E942301C8010E9480010E942F0182E691
:1003800091E00E94230105C0C8010E9480010E94E3
:100390002F0100FF03C080E20E9415010F5F1F4F75
:1003A000DFCF60968FE291E00E942301C4CFDF91FE
:1003B000CF911F910F91FF90DF90CF90BF90AF90A2
:1003C0000895FC019F01281B390B41914111FACF7F
:1003D000C901089590ED980F81E09A3008F080E00F
:1003E0000895AC0120E0FA01E20FF11D90819923FC
:1003F00049F080ED890F8A3018F09154963020F43E
:100400002F5FF1CF81E0089580E00895AC0120E0F6
:10041000FA01E20FF11D9081992341F08FE9890FD4
:100420008A3110F4905290832F5FF2CFCA01089561
:10043000680F791F8617970721F0FC011192CF01F1
:10044000F9CF0895CF93DF93CDB7DEB7CB5CD10959
:100450000FB6F894DEBF0FBECDBF6E0184EAC80EA2
:10046000D11CCC53DF4FD982C882C45CD0405E011E
:10047000E4E8AE0EB11CCA53DF4FB982A882C65C55
:10048000D0404E01F4E68F0E911CC853DF4F998285
:100490008882C85CD040C653DF4F19821882CA5C7C
:1004A000D0400E94FA0063E670E0CE0101960E94FF
:1004B000180260E270E0C6010E94180260E270E07B
:1004C000C5010E94180260E270E0C4010E94180297
:1004D000CE0101960E944B00BE016C537F4FCE01AE
:1004E00001960E947900811102C0F12C05C088E1BB
:1004F00091E00E942301D7CF8E010C531F4F0F0DA7
:10050000111D0F0D111DF80180819181892B59F268
:1005100082E391E00E942301F801808191810E9491
:1005200023018FE291E00E942301F394E5CFA1E241
:100530001A2EAA1BBB1BFD010DC0AA1FBB1FEE1F5D
:10054000FF1FA217B307E407F50720F0A21BB30BA8
:10055000E40BF50B661F771F881F991F1A9469F724
:1005600060957095809590959B01AC01BD01CF0180
:060570000895F894FFCF8E
:1005760008200800310D0A00320D0A00330D0A006A
:10058600340D0A00350D0A00494E50555420484195
:10059600532057524F4E4720464F524D4154210D3E
:1005A6000A005B44454255475D20496E7075743AB2
:1005B60020003031323334353637383941424344FE
:1005C6004546005B44454255475D20001B5B333181
:0805D6006D001B5B306D00009D
:00000001FF
