:100000000C9434000C9451000C9451000C94510049
:100010000C9451000C9451000C9451000C9451001C
:100020000C9451000C9451000C9451000C9451000C
:100030000C9451000C9451000C9451000C945100FC
:100040000C9451000C9451000C9451000C945100EC
:100050000C9451000C9451000C9451000C945100DC
:100060000C9451000C94510011241FBECFEFD8E026
:10007000DEBFCDBF11E0A0E0B1E0E0E9F6E002C0F4
:1000800005900D92A232B107D9F721E0A2E2B1E0CA
:1000900001C01D92A633B207E1F70E94C8020C947A
:1000A00046030C9400001F93CF93DF9300D01F9260
:1000B000CDB7DEB7122F89836A834B83222311F0D9
:1000C000233059F543E0BE016F5F7F4F8DE291E031
:1000D0000E94B402812F8D7F813041F443E0BE0144
:1000E0006F5F7F4F80E391E00E94B40212501230A4
:1000F00040F443E0BE016F5F7F4F83E391E00E94D5
:10010000B4026DE271E08FEF0E94FF000F900F903C
:100110000F90DF91CF911F910895213039F7DECFF5
:100120004C990EC090912C0191110AC091E09093CE
:100130002C0190E0019663E070E00E94FC0203C095
:100140004C9910922C0190912C01992349F02FEF9A
:1001500034E39CE0215030409040E1F700C00000C3
:1001600008954A990EC090912B0191110AC091E017
:1001700090932B0190E0019663E070E00E94FC02F6
:1001800003C04A9910922B0190912B01992349F0B9
:100190002FEF34E39CE0215030409040E1F700C065
:1001A000000090E008959695879596958795089517
:1001B00084B18C6284B982E58CBD08958CB58F7B47
:1001C0008CBD08958EBD0DB407FEFDCF089580E06F
:1001D0000E94E20080E00E94E20080E00E94E200D3
:1001E00080E00C94E2008FEF0E94E2008FEF0E940B
:1001F000E2008FEF0E94E2008FEF0C94E200FF928A
:100200000F931F93CF93DF93F82E8B010E94E7008B
:10021000E801075F1F4F8F2D0E94E2008A810E9434
:10022000E20089810E94E20088810E94E200239618
:10023000C017D10781F7DF91CF911F910F91FF90E8
:100240000C94F300FF920F931F93CF93DF93D82F5B
:10025000F62E8A010E94E700C0E0DC130EC08F2D4D
:100260000E94E200F80182810E94E200F80181818F
:100270000E94E200F80180810AC080EE0E94E20044
:1002800080E00E94E20080E00E94E20080E00E94A4
:10029000E200CF5FC33009F7DF91CF911F910F913B
:1002A000FF900C94F300ECE7F0E0808180648083A1
:1002B000EAE7F0E0808180688083808183608083CA
:1002C000EEE7F0E0808181608083089580917A007C
:1002D000806480937A0080917A0086FDFCCF8091C3
:1002E0007800909179000895E0ECF0E080818260E0
:1002F00080831092C50080E18093C400E2ECF0E0BE
:1003000080818083808180838081808380818660FA
:100310008083E1ECF0E08081886180830895909192
:10032000C00095FFFCCF8093C60008958091C00067
:1003300087FFFCCF8091C6000895CF93DF93EC0137
:100340008991882319F00E948F01FACFDF91CF9114
:100350000895CF93C82FE82FE295EF70F0E0E050BA
:10036000FF4F80810E948F01CF70EC2FF0E0E050B2
:10037000FF4F8081CF910C948F01CF92DF92EF924B
:10038000FF920F931F93CF93DF932AE0C22ED12CBD
:10039000E12CF12C6A3071058105910560F480E350
:1003A000860FDF91CF911F910F91FF90EF90DF901B
:1003B000CF900C948F01A70196010E9410038B012E
:1003C000D82FC92FCA01B9010E94BD01B8018D2FD4
:1003D0009C2FE0CFCF93DF93EC0181E191E00E946D
:1003E0009D01CE010E949D018AE191E0DF91CF91B4
:1003F0000C949D01CF92DF92EF92FF921F93CF93C7
:10040000DF937C016B01C0E0D0E00E949601182FC1
:100410008D30B1F08F3741F4209771F08DE191E08C
:100420000E949D01219708C0CC15DD0528F4F70135
:10043000EC0FFD1F80832196812F0E948F01E5CF55
:10044000CE0DDF1D18828AE191E00E949D01C70157
:10045000DF91CF911F91FF90EF90DF90CF900895A3
:10046000FC019F01281B390B41914111FACFC901B1
:10047000089590ED980F81E09A3008F080E008959B
:1004800090E0FB01E90FF11D2081222321F02817C4
:1004900021F09F5FF6CF80E0089581E008950F93EB
:1004A0001F93CF93DF938B01EC018991882331F067
:1004B000B8010E9440028111F8CF01C081E0DF91B4
:1004C000CF911F910F910895AC0120E0FA01E20F46
:1004D000F11D9081992341F08FE9890F8A3110F441
:1004E000905290832F5FF2CFCA010895680F791F51
:1004F0008617970721F0FC011192CF01F9CF0895DB
:10050000FC01AC014D5F5F4F80E03191332369F016
:10051000E417F50751F0982F990F292F220F220F7A
:10052000920F9053832F890FF0CF0895CF93DF93CD
:10053000EC01FB01DC019D012C1B3D0B9D919923DE
:1005400029F04191442311F09417A9F3892F990FB1
:10055000990BFB01E20FF31F2081821B910927FDFC
:100560009395DF91CF910895009721F0362FDC010C
:10057000FB0106C061157105C9F780E090E00895A0
:100580002E2F231B241718F421912D93F9CF0895B2
:100590000E94D8000E9453010E94740162E271E03F
:1005A0008FEF0E94FF00D0E0C0E08D2F0E94B100CD
:1005B000182FD817B9F00E9466012C2F30E0F901EE
:1005C000EE0FFF1FE20FF31FEE5DFE4FED0FF11D6B
:1005D0009695879596958795808362E271E08FEF77
:1005E0000E94FF008C2F0E949000C81303C0D12FDF
:1005F000C82FDBCF10E0FBCF97FB072E16F400943B
:1006000007D077FD09D00E94320307FC05D03EF4E5
:10061000909581959F4F0895709561957F4F0895AE
:10062000A1E21A2EAA1BBB1BFD010DC0AA1FBB1FF6
:10063000EE1FFF1FA217B307E407F50720F0A21B68
:10064000B30BE40BF50B661F771F881F991F1A94D5
:1006500069F760957095809590959B01AC01BD01FF
:10066000CF010895AA1BBB1B51E107C0AA1FBB1FE6
:10067000A617B70710F0A61BB70B881F991F5A952E
:10068000A9F780959095BC01CD010895F894FFCF0E
:1006900030313233343536373839414243444546B8
:1006A000005B44454255475D20000D0A00082008C4
:0206B000000048
:00000001FF
