:100000000C9434000C9449000C9449000C94490061
:100010000C9449000C9449000C9449000C9449003C
:100020000C9449000C9449000C9449000C9449002C
:100030000C9449000C9449000C9449000C9449001C
:100040000C9449000C9449000C9449000C9449000C
:100050000C9449000C9449000C9449000C944900FC
:100060000C9449000C94490011241FBECFEFD8E036
:10007000DEBFCDBF11E0A0E0B1E0E0EAF8E002C0F1
:1000800005900D92AA3AB107D9F70E94D9020C94B3
:100090004E040C9400009091C00095FFFCCF80931B
:1000A000C60008958091C00087FFFCCF8091C600F4
:1000B00008951F93CF93DF93CDB7DEB761970FB647
:1000C000F894DEBF0FBECDBF182F81E1EAE8F1E062
:1000D000DE01119601900D928A95E1F7812F8295AC
:1000E0008F70E1E0F0E0EC0FFD1FE80FF11D808163
:1000F0000E944B001F70E1E0F0E0EC0FFD1FE10FEC
:10010000F11D808161960FB6F894DEBF0FBECDBFA2
:10011000DF91CF911F910C944B00CF93DF93EC01B3
:100120008991882319F00E944B00FACFDF91CF917B
:1001300008958F929F92AF92BF92EF92FF920F938A
:100140001F93CF93DF937C014A015B01C0E08C2FAA
:1001500090E0A0E0B0E088159905AA05BB0518F568
:100160000E945200D82F0C2F10E08D3029F4F70197
:10017000E00FF11F108217C08F3761F4CC2351F0CC
:100180008BE991E00E948D00F701E00FF11F1082D2
:10019000C150DDCF8D2F0E944B00F701E00FF11F02
:1001A000D083CF5FD4CFDF91CF911F910F91FF907C
:1001B000EF90BF90AF909F908F900895E0ECF0E0AB
:1001C000A081A260A083E3E0220F331F441F551FCC
:1001D000EA95D1F70E942C04BA01A90141505109B6
:1001E00061097109BB27A72F962F852F8093C50022
:1001F0004093C400E1ECF0E08081886080838081DE
:1002000080618083E2ECF0E0808184608083808183
:10021000826080830895AC01FC0180961192E817FA
:10022000F907E1F790E0292F30E0FB01E20FF31F1F
:100230008081882331F0FA01E20FF31F80839F5FF2
:10024000F2CF0895CF93DF93EC01807F992724E0CC
:10025000969587952A95E1F70E9459008C2F8F700B
:10026000DF91CF910C9459008F929F92AF92BF92E1
:10027000CF92DF92EF92FF926B017C014701AA249B
:10028000BB24892D0E945900882D0E9459008D2D74
:100290000E9459008C2DFF90EF90DF90CF90BF907F
:1002A000AF909F908F900C945900FC019F01281BE8
:1002B000390B41914111FACF822F0895FF920F938C
:1002C0001F93CF93DF93C82F192FF62E072F0E946D
:1002D0005501D82F8F2D902F0E945501D81310C093
:1002E0009C2FAF2DB02FEC2FF12F8E2F891B8D1748
:1002F00028F421918D912817C1F302C080E001C03C
:1003000081E0DF91CF911F910F91FF900895CF93DE
:10031000DF939B0140E0DC01CD01FD015191CFEF66
:10032000C50FC03210F4DF01F7CF41110DC0EB0152
:1003300050E0CD01ED91E13210F4FB0118C05E31C7
:10034000E1F35F5FE993F5CF5232A1F4E90150E0A8
:10035000CF01A0813196AA2349F0503291F0A23208
:1003600011F4CF0103C05F5FA993F2CFF901E50F4C
:10037000F11D10824F5F205E3F4F433061F681E0F8
:1003800001C080E0DF91CF910895F999FECF72BD51
:1003900061BDF89A80B50895F999FECF92BD81BDEF
:1003A00060BDFA9AF99A0895EF92FF920F931F9306
:1003B000CF93DF93EA018B017A01E20EF31ECE1593
:1003C000DF0539F06991C8010E94CC010F5F1F4F12
:1003D000F6CFDF91CF911F910F91FF90EF9008958D
:1003E000CF92DF92EF92FF920F931F93CF93DF9301
:1003F000EA018A01020F131F6B017C01C017D107AC
:1004000059F0C701B6010E94C50189938FEFC81A40
:10041000D80AE80AF80AF2CFDF91CF911F910F9125
:10042000FF90EF90DF90CF9008958F929F92AF92C0
:10043000BF92CF92DF92EF92FF92C12CD12C760126
:100440004C01A12CB12CC701B6010E94C5018F3708
:1004500079F4C80CD91CEA1CFB1CC11484E0D80632
:10046000E104F10480F36FEF73E080E090E002C0FC
:10047000B601C701FF90EF90DF90CF90BF90AF9093
:100480009F908F9008954F925F926F927F928F927C
:100490009F92AF92BF92CF92DF92EF92FF920F9313
:1004A000CF93DF9300D000D01F92CDB7DEB76B01A2
:1004B0007C0149015A01802F90E0A0E0B0E08983DF
:1004C0009A83AB83BC838C149D04AE04BF0408F4F0
:1004D0005BC0C701B6010E94340180EA91E00E942E
:1004E0008D00C701B6011D82AD810A17F1F0861695
:1004F0009706A806B906C8F02B013C01AFEF4A1ACF
:100500005A0A6A0A7A0A0E94C5010E945900BD81EE
:10051000BB2329F0B0FF03C080E20E944B002D8175
:100520002F5F2D83C301B201DFCF83EA91E00E94E8
:100530008D00C701B601262F2C192017C0F486168E
:100540009706A806B90698F02B013C01BFEF4B1A9D
:100550005B0A6B0A7B0A0E94C50190EE980F9F35DB
:1005600008F080E20E944B00C301B201E4CF86EAAA
:1005700091E00E948D0089819A81AB81BC81C80E77
:10058000D91EEA1EFB1E9FCF0F900F900F900F9069
:100590000F90DF91CF910F91FF90EF90DF90CF9070
:1005A000BF90AF909F908F907F906F905F904F9093
:1005B0000895CF93DF93CDB7DEB7C05AD1400FB6C1
:1005C000F894DEBF0FBECDBF20E032EC41E050E03A
:1005D00060E074E284EF90E00E94DE00E12CFF24F2
:1005E000F394EC0EFD1E20E2E20EF11C1FE790E6F4
:1005F000C92EDD24D394CC0EDD1E8FEFC81AD80A85
:1006000020E6A22EBB24B394AC0EBD1E21E2A20EA6
:10061000B11C40E054E060E070E0CE0101960E9421
:1006200099008BE491E00E948D00BE017395CE018C
:1006300001960E948701882361F360E071E0CE019A
:1006400093950E945E01811140C0412C512C3201D2
:10065000C301B2010E94C5018F3741F520E230E0AD
:10066000AE01405A5E4FC301B2016F5F7F4F8F4FA3
:100670009F4F0E94F001B701CE01805A9E4F0E9409
:100680005E01811113C0C301B2016F5D7F4F8F4FB7
:100690009F4F20E230E0AE01405A5E4F0E94F001D1
:1006A000CE01805A9E4F0E948D007EC081E4480E8C
:1006B000511C611C711C20E1421624E052066104A9
:1006C000710431F685E091E0C1C06DE071E0CE01CA
:1006D00093950E945E0181116AC0412C512C320118
:1006E000C301B2010E94C5018F3729F520E230E035
:1006F000AE01405A5E4FC301B2016F5F7F4F8F4F13
:100700009F4F0E94F001B701CE01805A9E4F0E9478
:100710005E01811110C0C301B201605E7F4F8F4F37
:100720009F4F20E230E0AE01405A5E4F0E94F00140
:1007300083E191E08BC081E4480E511C611C711C67
:1007400020E1421624E052066104710449F6C05AC1
:10075000DE4F1883C056D140B701C6010E940B017D
:10076000BE01605C7E4FC5010E940B0181E490E0F8
:100770000E9415026F3F23E0720709F46AC02B0143
:100780003C016624772421E430E0AE01405A5E4FFC
:10079000C301B2010E94D40184E291E00E948D0065
:1007A000C301B2010E9434018BE491E04FC06EE5B9
:1007B00071E0CE0193950E945E01811132C0412CFF
:1007C000512C3201C301B2010E94C5018F37D1F40F
:1007D00020E230E0AE01405A5E4FC301B2016F5FCC
:1007E0007F4F8F4F9F4F0E94F001B701CE01805A7B
:1007F0009E4F0E945E01811105C060E0C2010E940F
:10080000CC0107CF81E4480E511C611C711C20E112
:10081000421624E0520661047104A1F685E691E0D7
:1008200015C061E771E0CE0193950E945E018111D0
:100830000BC000E12FEF33E040E050E060E070E0FB
:10084000CB010E944302E5CE87E791E00E948D0034
:10085000E0CE8EE491E0FACFA1E21A2EAA1BBB1BD8
:10086000FD010DC0AA1FBB1FEE1FFF1FA217B3077C
:10087000E407F50720F0A21BB30BE40BF50B661F92
:10088000771F881F991F1A9469F760957095809556
:1008900090959B01AC01BD01CF010895F894FFCF65
:1008A0005245414400456D7074790A0D0057524914
:1008B000544500616C726561647920657869737470
:1008C000730A0D00426C6F636B207375636365730D
:1008D0007366756C6C79207772697474656E2061CB
:1008E0007420616464726573733A200A0D004E6F60
:1008F000207370616365206C6566740A0D00464F55
:1009000052474554004E6F7420666F756E640A0D31
:10091000005052494E5400556E6B6E6F776E206BCF
:10092000657779776F72640A0D0030313233343570
:100930003637383961626364656600081B5B5000B6
:0A0940003A2000207C007C0A0D0024
:00000001FF
