:100000000C9434000C9451000C9451000C94510049
:100010000C9451000C9451000C9451000C9451001C
:100020000C9451000C9451000C9451000C9451000C
:100030000C9451000C9451000C9451000C945100FC
:100040000C9451000C9451000C9451000C945100EC
:100050000C9451000C9451000C9451000C945100DC
:100060000C9451000C94510011241FBECFEFD8E026
:10007000DEBFCDBF12E0A0E0B1E0E6E6FFE102C0E6
:1000800005900D92A031B107D9F722E0A0E1B2E0CE
:1000900001C01D92AE32B207E1F70E946B0D0C94C5
:1000A000B10F0C9400000895CF93C82F0E94C7058C
:1000B0008C2FCF910895CF93C82F81E00E946203C7
:1000C0000E948B038C2FCF9108950F93CF93DF93D2
:1000D000CDB7DEB729970FB6F894DEBF0FBECDBF00
:1000E00099E0E1E0F1E0DE01119601900D929A9520
:1000F000E1F7811110921002B19B0BC0B19A80916F
:10010000100290E0019663E070E00E94E40D80939D
:1001100010026091100270E0CB01880F991F680FE8
:10012000791F21E030E02C0F3D1F620F731F80EF1D
:100130000E94B2038091100290E09C01220F331FB5
:10014000820F931F21E030E02C0F3D1F820F931F81
:100150000E94600500E42BE546E660E480E20E9430
:10016000CF0280E029960FB6F894DEBF0FBECDBF58
:10017000DF91CF910F910895FF920F931F93CF932B
:10018000DF93CDB7DEB7AC970FB6F894DEBF0FBEE6
:10019000CDBFF62E96E1EAE0F1E0DE015796019040
:1001A0000D929A95E1F796E1E0E2F1E0DE01119619
:1001B00001900D929A95E1F7062F10E06817B9F0BB
:1001C00080E20E94F304000F111F81E090E08C0F89
:1001D0009D1F080F191FD801ED91FC9180E0099532
:1001E000D8015696ED91FC91579781E00CC0000F15
:1001F000111FE1E0F0E0EC0FFD1FE00FF11F06889A
:10020000F789E02D80E009958F2DAC960FB6F89414
:10021000DEBF0FBECDBFDF91CF911F910F91FF9039
:100220000895E0ECF0E08081826080831092C50048
:1002300080E18093C400E2ECF0E0808180838081E3
:10024000808380818083808186608083E1ECF0E020
:1002500080818861808308959091C00095FFFCCFD4
:100260008093C60008958091C00087FFFCCF8091E5
:10027000C60008958091C00087FF03C08091C6002A
:10028000089580E00895CF93DF93EC01899188234E
:1002900019F00E942C01FACFDF91CF910895CF93EE
:1002A000C82FE82FE295EF70F0E0EA54FE4F80810E
:1002B0000E942C01CF70EC2FF0E0EA54FE4F8081B9
:1002C000CF910C942C01CF92DF92EF92FF920F937B
:1002D0001F93CF93DF932AE0C22ED12CE12CF12C77
:1002E0006A3071058105910560F480E3860FDF9126
:1002F000CF911F910F91FF90EF90DF90CF900C94D2
:100300002C01A70196010E94F80D8B01D82FC92F4F
:10031000CA01B9010E946301B8018D2F9C2FE0CF63
:10032000CF93DF93EC0187EC91E00E944301CE0173
:100330000E94430183EB91E0DF91CF910C94430144
:10034000FC019F01281B390B41914111FACFC901D2
:10035000089590ED980F81E09A3008F080E00895BC
:10036000FC0190E0DF01A90FB11D3C91332369F03E
:1003700020E0DB01A20FB11D4C91442321F0341782
:1003800031F02F5FF6CF80E0089581E008959F5F00
:10039000E9CFAC0120E0FA01E20FF11D9081992331
:1003A00041F08FE9890F8A3110F4905290832F5FCA
:1003B000F2CFCA010895680F791F8617970721F0B9
:1003C000FC011192CF01F9CF0895FC01AC014D5F02
:1003D0005F4F80E03191332369F0E417F50751F066
:1003E000982F990F292F220F220F920F9053832FAE
:1003F000890FF0CF08951092B90088E48093B80077
:1004000084E08093BC00089584EA8093BC008091CE
:10041000BC0087FFFCCF089584E98093BC008091E5
:10042000BC0084FDFCCF08958093BB0084E88093DA
:10043000BC008091BC0087FFFCCF089584E88093C6
:10044000BC008091BC0087FFFCCF8091BB00089569
:100450000C941E021F93CF93DF93182FD62FC42F17
:100460000E940402812F880F0E9414028D2F0E9487
:1004700014028C2F0E941402DF91CF911F910C94D3
:100480000C02CF93DF93C82FD62F0E9404028C2F2B
:10049000880F0E9414028D2F0E9414020E940402F1
:1004A0008C2F880F81600E9414020E941E02C82FA8
:1004B0000E940C028C2FDF91CF9108950F931F9310
:1004C000CF93DF93082F162FD42FC22F0E94040240
:1004D000802F880F0E941402812F0E9414028D2FFA
:1004E0000E9414028C2F0E941402DF91CF911F9161
:1004F0000F910C940C02CF93DF93D82FC62F0E943C
:1005000004028D2F880F0E94140286E00E941402BC
:100510008C2F0E941402DF91CF910C940C02CF9388
:10052000DF93C82FD62F0E940402CC0F8C2F0E947D
:10053000140282E00E9414028D2F0E9414020E9475
:100540000C022FEF89E698E1215080409040E1F7BE
:1005500000C000000E9404028C2F0E94140282E05E
:100560000E9414028FEF0E9414020E940C022FEFCF
:1005700089E698E1215080409040E1F700C00000FA
:10058000DF91CF9108952FEF40E063E00E945E027B
:1005900087EC90E00197F1F700C0000008950F93F9
:1005A0001F93CF93DF93C82F142FD22F2FEE462FF8
:1005B00063E00E945E028FE39FE10197F1F700C0C4
:1005C00000008C2F0E94C3022FED412F63E08C2F7F
:1005D0000E945E028FE39FE10197F1F700C00000E7
:1005E0008C2F0E94C3022FEB4D2F63E08C2F0E94B3
:1005F0005E028FE39FE10197F1F700C000008C2FAE
:100600000E94C3022FE7402F63E08C2F0E945E02FE
:100610008FE39FE10197F1F700C000008C2FDF917D
:10062000CF911F910F910C94C302462F63E00C945D
:100630002A02EF92FF920F931F93CF93DF937C01D7
:100640008C01C62FD0E0C8018E199F098C179D0719
:1006500034F4F80181918F010E941402F4CFDF91EC
:10066000CF911F910F91FF90EF900895EF92FF921D
:100670000F931F93CF93DF937C018C01C62FD0E0A3
:10068000C8018E199F098C179D0734F40E941E0221
:10069000F80181938F01F4CFDF91CF911F910F91DA
:1006A000FF90EF90089516BC85B5856085BD84B533
:1006B000826084BD83EC87BDEEE6F0E080818260DD
:1006C000808308951092850010928400E0E8F0E0A5
:1006D000908198609083282F30E0322F2227330FAB
:1006E000032E000C440B550B60E074E284EF90E0A5
:1006F0000E94F80D21503109309389002093880021
:10070000EFE6F0E0808182608083E1E8F0E08081C4
:1007100084608083089584B18C6284B982E58CBD45
:1007200008958CB58F7B8CBD08958EBD0DB407FEEA
:10073000FDCF089580E00E94950380E00E9495031C
:1007400080E00E94950380E00C9495038FEF0E9457
:1007500095038FEF0E9495038FEF0E9495038FEF13
:100760000C9495030F931F93CF93DF93D82F8B0196
:100770000E949A03C3E08D2F0E949503F8018281A5
:100780000E949503F80181810E949503F801808100
:100790000E949503C15079F7DF91CF911F910F917E
:1007A0000C94A603FF920F931F93CF93DF93D82F40
:1007B000F62E8A010E949A03C0E0DC130EC08F2D32
:1007C0000E949503F80182810E949503F8018181BE
:1007D0000E949503F80180810AC080EE0E94950373
:1007E00080E00E94950380E00E94950380E00E94D3
:1007F0009503CF5FC33009F7DF91CF911F910F9120
:10080000FF900C94A603CF92DF92EF92FF920F938A
:100810001F93CF93DF93CDB7DEB72E970FB6F89423
:10082000DEBF0FBECDBF8C018EE0E6E3F1E0DE015E
:10083000119601900D928A95E1F7CE0101967C0107
:100840006E019FE0C90ED11CF70181917F01F80173
:10085000E80FF11D80810E94A9018823A9F0EC1402
:10086000FD0491F7F8018285803269F482818F322C
:1008700051F485818F3239F485858A3321F481E002
:1008800090899A3309F080E02E960FB6F894DEBF77
:100890000FBECDBFDF91CF911F910F91FF90EF90D1
:1008A000DF90CF900895AF92BF92CF92DF92EF92F8
:1008B000FF920F931F93CF93DF9300D000D000D00F
:1008C000CDB7DEB77C015B0186E0E4E4F1E0DE0158
:1008D000119601900D928A95E1F76B018E010F5FE1
:1008E0001F4FF7018081882361F0C7010E94E50155
:1008F000F60181936F01F80181918F01E80EF11CDF
:10090000F0CFC50126960FB6F894DEBF0FBECDBF5F
:10091000DF91CF911F910F91FF90EF90DF90CF90DB
:10092000BF90AF900895CF93DF93EC010E94A00198
:10093000439769F460ED71E0CE010E94B001882315
:1009400031F0CE010E94030491E0811101C090E0DA
:10095000892FDF91CF9108950F931F93CF938C012F
:100960000E943A01C82F882379F1909111028D30AD
:1009700089F4F801E90FF11D108210921102C801EB
:100980000E949304C82F811121C08EED91E00E9436
:1009900043011DC08F3761F4992399F084E092E000
:1009A0000E9443018091110281508093110209C07D
:1009B000983238F4F801E90FF11D80839F5F90931E
:1009C00011028C2F0E942C01C0E001C0C1E08C2FCD
:1009D000CF911F910F91089584B1876184B98AB135
:1009E00088668AB908951F93CF93DF9300D01F9232
:1009F000CDB7DEB7182F19821A821B8285B1887E87
:100A000085B98BB187798BB94FEF62E0812F0E9456
:100A10002A0240E063E0812F0E942A020E948B0399
:100A2000BE016F5F7F4F8FEF0E94B2030E94910360
:100A3000E1E8F0E08081887F8083F8940F900F9048
:100A40000F90DF91CF911F9108950F931F93CF9334
:100A5000C82F87E185B94FE062E08C2F0E942A02FF
:100A60004FEF63E08C2F0E942A0208EB1BE08C2FD3
:100A70000E9474058FE99FE00197F1F700C0000024
:100A800001501109A1F70E948B038C2F0E94F304DF
:100A900008EE13E08C2F0E9474058FE99FE0019708
:100AA000F1F700C0000001501109A1F7CF911F918B
:100AB0000F91089583FF02C0877F806185B90895F3
:100AC000FC018BB187798BB98081882311F090E28A
:100AD00001C090E0818181119064828181119860D0
:100AE0008BB1982B9BB90895CF93DF93D82F4A9958
:100AF00002C0C7E001C0CFE04C9BCB7F60E08D2FF0
:100B00000E94410280FFCD7F4C2F62E08D2FDF914C
:100B1000CF910C942A024A990EC090911302911120
:100B20000AC091E09093130290E001966BE070E0B0
:100B30000E94E40D03C04A99109213024C990BC015
:100B400090911202911107C091E0909312028823B4
:100B500039F0815006C04C9B04C01092120201C0B3
:100B60008AE090911302992311F04A9906C090915E
:100B70001202992359F04C9B09C02FEF34E39CE0FB
:100B8000215030409040E1F700C000000895ECE7AC
:100B9000F0E0108280818064808380818F7D8083FB
:100BA000EAE7F0E0808180688083808187608083CD
:100BB0000895CF93C82F0E94C70580917C00887F3D
:100BC000C770C82BC0937C0080917A0080648093AA
:100BD0007A0080917A0084FFFCCF80917A00806156
:100BE00080937A00809178002091790090E0922B98
:100BF0009370CF91089580912402909125020196DF
:100C00009C012150310920313742CCF390932502C9
:100C10008093240280E00C94D90520912002309129
:100C2000210280912202909123022F5F3F4FA90160
:100C300041505109403355475CF4782F692F019694
:100C4000472F562F782F692F40335547C4F3EDCFE8
:100C5000909323028093220230932102209320025A
:100C600081E00C94D90520911C0230911D028091E5
:100C70001E0290911F022F5F3F4FA9014150510961
:100C8000403355475CF4782F692F0196472F562F34
:100C9000782F692F40335547C4F3EDCF90931F024F
:100CA00080931E0230931D0220931C0282E00C945C
:100CB000D905CF93DF9300D0CDB7DEB788EC809312
:100CC0007C0080917A00866880937A001A8219826B
:100CD00089819A819C012F5F3F4F3A832983803716
:100CE0009741B4F380917A00806480937A00809178
:100CF0007A0086FDFCCF80917800909179000F906A
:100D00000F90DF91CF9108959F92AF92BF92CF92B3
:100D1000DF92EF92FF920F931F93CF93DF93CDB7A4
:100D2000DEB72C970FB6F894DEBF0FBECDBF982E5E
:100D30000E94FB055C018CE0EAE4F1E0DE01119623
:100D400001900D928A95E1F72AE030E0C501B901E2
:100D50000E94D00D01E010E00C0F1D1F080F191F9D
:100D6000CB01B9010E94D00DCC24C394D12CCC0E60
:100D7000DD1EC80ED91EC50164E670E00E94D00DCC
:100D8000CB01B9010E94D00DEE24E394F12CEC0EBE
:100D9000FD1EE80EF91EC50168EE73E00E94D00D3D
:100DA000CB01B9010E94D00DE1E0F0E0EC0FFD1F96
:100DB000E80FF91FD8010C91D6012C91D7014C9165
:100DC000608180E20E94CF02892D2C960FB6F894A4
:100DD000DEBF0FBECDBFDF91CF911F910F91FF906E
:100DE000EF90DF90CF90BF90AF909F9008958F923B
:100DF0009F92AF92BF92DF92EF92FF920F931F9359
:100E0000CF93DF93CDB7DEB72C970FB6F894DEBF44
:100E10000FBECDBFD82E0E940D0620911A02309130
:100E20001B02A901440F551F240F351F47E0BC01C9
:100E3000469FC001479F900D1124280F391F0AE0DB
:100E400010E0C901B8010E94D00DCB0170931B02C4
:100E500060931A024CE0EAE4F1E0DE0111960190A1
:100E60000D924A95E1F7B8010E94D00DAA24A394EF
:100E7000B12CAC0EBD1EA80EB91EC90164E670E00F
:100E80000E94D00DCB01B8010E94D00DEE24E39456
:100E9000F12CEC0EFD1EE80EF91EC90168EE73E0A0
:100EA0000E94D00DCB01B8010E94D00D88248394FC
:100EB000912C8C0E9D1E880E991EC90160E177E26F
:100EC0000E94D00DE1E0F0E0EC0FFD1FE60FF71FF0
:100ED000D5010C91D7012C91D4014C91608180E215
:100EE0000E94CF028D2D2C960FB6F894DEBF0FBE58
:100EF000CDBFDF91CF911F910F91FF90EF90DF90C9
:100F0000BF90AF909F908F9008958F929F92AF92D5
:100F1000BF92DF92EF92FF920F931F93CF93DF93D5
:100F2000CDB7DEB72C970FB6F894DEBF0FBECDBF9E
:100F3000D82E0E9433062091180230911902A9017F
:100F4000440F551F240F351F47E0BC01469FC001C9
:100F5000479F900D1124280F391F0AE010E0C901A6
:100F6000B8010E94D00DCB01709319026093180252
:100F70004CE0EAE4F1E0DE01119601900D924A9511
:100F8000E1F7B8010E94D00DAA24A394B12CAC0EB5
:100F9000BD1EA80EB91EC90164E670E00E94D00D06
:100FA000CB01B8010E94D00DEE24E394F12CEC0E9D
:100FB000FD1EE80EF91EC90168EE73E00E94D00D17
:100FC000CB01B8010E94D00D88248394912C8C0E03
:100FD0009D1E880E991EC90160E177E20E94D00D26
:100FE000E1E0F0E0EC0FFD1FE60FF71FD5010C91DB
:100FF000D7012C91D4014C91608180E20E94CF02F4
:101000008D2D2C960FB6F894DEBF0FBECDBFDF91AD
:10101000CF911F910F91FF90EF90DF90BF90AF9015
:101020009F908F900895AF92BF92CF92DF92EF92F0
:10103000FF920F931F93CF93DF93CDB7DEB72C971B
:101040000FB6F894DEBF0FBECDBF182F882321F056
:1010500010921702109216026091140270911502FC
:1010600080E090E00E94630183EB91E00E944301E5
:101070008CE0EAE4F1E0DE01119601900D928A9590
:10108000E1F7E0911402F09115022AE030E0CF017F
:10109000B9010E94D00DAA24A394B12CAC0EBD1EA0
:1010A000A80EB91ECB01B9010E94D00DCC24C39467
:1010B000D12CCC0EDD1EC80ED91ECF0164E670E027
:1010C0000E94D00DCB01B9010E94D00DEE24E39413
:1010D000F12CEC0EFD1EE80EF91ECF0168EE73E058
:1010E0000E94D00DCB01B9010E94D00DE1E0F0E0EB
:1010F000EC0FFD1FE80FF91FD5010C91D6012C91C3
:10110000D7014C91608180E20E94CF02809116024B
:101110009091170201968436910528F49093170256
:10112000809316020AC010921702109216020E94B3
:1011300059069093150280931402812F2C960FB6B6
:10114000F894DEBF0FBECDBFDF91CF911F910F91FD
:10115000FF90EF90DF90CF90BF90AF9008951F93D6
:10116000CF93DF9300D01F92CDB7DEB70E94040269
:1011700080E70E9414028091560190915701A0913E
:10118000580189839A83AB8363E0CE0101960E9464
:1011900019030E940C020E94040281E70E941402BB
:1011A0000E942802182F0E940C02812F80958170C6
:1011B0000F900F900F90DF91CF911F910895CF93D3
:1011C000DF93EC010E94040281E70E94140266E0B2
:1011D000CE010E9436030E941E028E83DF91CF91C2
:1011E0000C940C02CF93DF93CDB7DEB72A970FB6DE
:1011F000F894DEBF0FBECDBF2FEF83EF91E02150FB
:1012000080409040E1F700C000000E94040280E7A7
:101210000E94140281E70E9414020E94040281E7E6
:101220000E9414020E94280283FF19C00E94040237
:1012300080E70E9414028091590190915A01A09177
:101240005B0188879987AA8763E0CE0108960E9490
:1012500019038FE39CE90197F1F700C00000CE016C
:1012600001960E94DF089FEF27EA81E69150204017
:101270008040E1F700C00000CE0101960E94DF0827
:101280002A960FB6F894DEBF0FBECDBFDF91CF9187
:101290000895CF92DF92EF92FF920F931F93CF9317
:1012A000DF93FC01A62FEA01218142813381532F74
:1012B0005F70648175817627672776276B01E12C43
:1012C000F12CC701B601852BA630A9F40E94B60EF9
:1012D00020E030E040E855E30E94440F20E030E099
:1012E00048E453E40E94440F20E030E048E452E434
:1012F0000E941A0E54C0A73009F50E94B60E20E0D5
:1013000030E040E855E30E94440F20E030E048E43C
:1013100053E40E94440F20E030E048E452E40E948D
:101320001A0E26E636E646EE5FE30E94440F20E002
:1013300030E040E052E40E941B0E31C0842F90E068
:10134000A0E0B0E044E0880F991FAA1FBB1F4A9598
:10135000D1F732953F70AC01BD01432B822F90E055
:10136000A0E0B0E0ECE0880F991FAA1FBB1FEA9530
:10137000D1F78A019B01082B192B2A2B3B2BC90182
:10138000B8010E94B60E20E030E040E855E30E942C
:10139000440F20E030E048EC52E40E94440F6B011F
:1013A0007C010E94870E688370E080E090E00E94DC
:1013B000B80E9B01AC01C701B6010E941A0E20E0D5
:1013C00030E048EC52E40E94440F0E94870E69838B
:1013D000CE01DF91CF911F910F91FF90EF90DF90A1
:1013E000CF9008950F931F93CF93DF93CDB7DEB7C0
:1013F0002C970FB6F894DEBF0FBECDBF2CE0ECE506
:10140000F1E0DE01119601900D922A95E1F7FC01C1
:10141000418130812AE0842F622F0E94C40D01E0B7
:1014200010E00C0F1D1F090F111DA1E0B0E0AC0F63
:10143000BD1FA80FB11D832F0E94C40DE1E0F0E095
:10144000EC0FFD1FE90FF11D4081406821E030E005
:101450002C0F3D1F280F311DC901F80100812C916F
:10146000FC01608180E20E94CF022C960FB6F894B6
:10147000DEBF0FBECDBFDF91CF911F910F910895B9
:101480001F93CF93DF93CDB7DEB727970FB6F894AE
:10149000DEBF0FBECDBF182F8CE292E00E94F20992
:1014A000112319F082E080930001B19B06C0809166
:1014B00000018F5F80930001B19A8091000182301A
:1014C000A8F0A99B15C00E94AF08882369F0CE013F
:1014D00001960E94DF084CE252E066E0CE010196E0
:1014E0000E94490910920001A99A02C080E001C03F
:1014F000812F27960FB6F894DEBF0FBECDBFDF91C8
:10150000CF911F9108951F93CF93DF93CDB7DEB78F
:1015100027970FB6F894DEBF0FBECDBF182F8AE213
:1015200092E00E94F209112319F082E080932902CF
:10153000B19B06C0809129028F5F80932902B19AE6
:10154000809129028230A8F0A99B15C00E94AF08A3
:10155000882369F0CE0101960E94DF084AE252E03A
:1015600067E0CE0101960E94490910922902A99ACA
:1015700002C080E001C0812F27960FB6F894DEBF2D
:101580000FBECDBFDF91CF911F9108951F93CF93D1
:10159000DF93CDB7DEB727970FB6F894DEBF0FBE47
:1015A000CDBF182F87E292E00E94F209112319F0B3
:1015B00082E080932602B19B06C0809126028F5F55
:1015C00080932602B19A80912602823078F1A99BFD
:1015D0002FC06091270270E080E090E00E946301DC
:1015E00088E092E00E9443016091280270E080E070
:1015F00090E00E94630183EB91E00E94430183EB42
:1016000091E00E9443010E94AF08882369F0CE0157
:1016100001960E94DF0847E252E068E0CE010196A1
:101620000E94490910922602A99A02C080E001C0D6
:10163000812F27960FB6F894DEBF0FBECDBFDF9186
:10164000CF911F910895CF93C82F81E00E9462032C
:101650008C2FCF910895CF93C82F0E94530381E020
:101660000E9462038C2FCF910895CF93C82F0E94C0
:10167000040282EA0E9414028C2F0E9414020E942B
:101680000C020E94040283EA0E9414020E941E02BD
:10169000C82F0E940C028C2FCF910895CF92DF9219
:1016A000FF920F931F93CF93DF93CDB7DEB72C97A5
:1016B0000FB6F894DEBF0FBECDBFF82E84E00E94B7
:1016C000350B182F1073169516951695912F990FA7
:1016D000990F190F8F70180F83E00E94350B982F08
:1016E0009077969596959695292F220F220F920F17
:1016F0008F70890F9CE0E8E6F1E0DE011196019021
:101700000D929A95E1F72AE0622F0E94C40DCC2435
:10171000C394D12CCC0EDD1EC90ED11C41E050E08B
:101720004C0F5D1F480F511D812F0E94C40DA1E079
:10173000B0E0AC0FBD1FA90FB11D21E030E02C0FB0
:101740003D1F280F311DC901F6010081FA012081DA
:101750004C91FC01608180E20E94CF028F2D2C967B
:101760000FB6F894DEBF0FBECDBFDF91CF911F91B2
:101770000F91FF90DF90CF900895CF92DF92FF926C
:101780000F931F93CF93DF93CDB7DEB72C970FB690
:10179000F894DEBF0FBECDBFF82E85E00E94350B5A
:1017A000182F1073169516951695912F990F990F5E
:1017B000190F8F70180F87E00E94350B84FB992753
:1017C00090F9990F292F220F220F920F8F70890FF6
:1017D0009CE0E8E6F1E0DE01119601900D929A9509
:1017E000E1F72AE0622F0E94C40DCC24C394D12CCF
:1017F000CC0EDD1EC90ED11C41E050E04C0F5D1F28
:10180000480F511D812F0E94C40DA1E0B0E0AC0F24
:10181000BD1FA90FB11D21E030E02C0F3D1F280F87
:10182000311DC901F6010081FA0120814C91FC01B2
:10183000608180E20E94CF028F2D2C960FB6F89423
:10184000DEBF0FBECDBFDF91CF911F910F91FF90F3
:10185000DF90CF900895FF920F931F93CF93DF9364
:10186000CDB7DEB72C970FB6F894DEBF0FBECDBF55
:10187000F82E88E00E94350B982F92959F708F70FC
:10188000182F2AE0929F100D112487E00E94350B3B
:10189000282F221F2227221F2D5E8CE0E8E6F1E090
:1018A000DE01119601900D928A95E1F73AE0812FC1
:1018B000632F0E94C40D01E010E00C0F1D1F090FE3
:1018C000111D41E050E04C0F5D1F480F511D822F4C
:1018D0000E94C40DA1E0B0E0AC0FBD1FA90FB11D67
:1018E000E1E0F0E0EC0FFD1FE80FF11DCF01F80182
:1018F0000081FA0120814C91FC01608180E20E940C
:10190000CF028F2D2C960FB6F894DEBF0FBECDBF41
:10191000DF91CF911F910F91FF9008950F931F9327
:10192000CF93DF93EC01062F142F0E94040282EA6A
:101930000E941402802F0E941402612FCE010E9487
:101940001903DF91CF911F910F910C940C02CF934B
:10195000DF93CDB7DEB72E970FB6F894DEBF0FBE7C
:10196000CDBF27E0E4E7F1E0DE01189601900D928B
:101970002A95E1F727E0EBE7F1E0DE01119601900F
:101980000D922A95E1F7DE011896BE016F5F7F4F39
:10199000AE01415F5F4FFC012191CF013D913217B4
:1019A00050F0FB013191BF01231728F0A417B507B0
:1019B00091F781E001C080E02E960FB6F894DEBF6B
:1019C0000FBECDBFDF91CF9108950F931F93CF939B
:1019D0008C01C62F87EC91E00E944301C8010E9450
:1019E00043016C2F70E080E090E00E9463018AE088
:1019F00092E00E9443018C2F0E944F0183EB91E003
:101A0000CF911F910F910C944301CF92DF92EF92EF
:101A1000FF920F931F93CF93DF9300D000D000D09D
:101A2000CDB7DEB7FC01AC01495F5F4FCE01019637
:101A30006C017E0194E0E90EF11C1C2D3D2D0AE0A5
:101A4000DA018E91AD012AE0602F0E94C40DB0E151
:101A50008B9F900D1124D6019D936D01AE15BF058E
:101A600079F78081622F0E94C40DB0E18B9F900DA9
:101A700011249C8381810E94C40D20E1829F900DDE
:101A800011249D838281843111F490689D83838128
:101A90006AE00E94C40D40E1849F900D11249E8352
:101AA00044E062E0812F932F0E948E0C42E067E0B9
:101AB000CE0105960E948E0C26960FB6F894DEBFD6
:101AC0000FBECDBFDF91CF911F910F91FF90EF908F
:101AD000DF90CF900895CF93DF93CDB7DEB7AF9768
:101AE0000FB6F894DEBF0FBECDBF7E0189E2E80ECF
:101AF000F11C87E0F70111928A95E9F70E94FB013A
:101B00000E94EC040E9411010E94F20841E066E08C
:101B100080E20E942A0240E067E080E20E942A02FE
:101B200080E20E94F30480E20E9425054FE062E01B
:101B300080E20E942A0210E0812F0E948B05682F0C
:101B4000812F0E94BC00182FCE0101960E94AC0488
:101B50008823B1F0B701CE0101960E945304C7015A
:101B60000E94A70C882341F082E891E00E94430183
:101B7000C7010E94050D04C088E991E00E9443015D
:101B8000812F0E945A05D8CF991B79E004C0991F74
:101B9000961708F0961B881F7A95C9F780950895C7
:101BA000AA1BBB1B51E107C0AA1FBB1FA617B70783
:101BB00010F0A61BB70B881F991F5A95A9F780959F
:101BC0009095BC01CD01089597FB072E16F4009463
:101BD00007D077FD09D00E94D00D07FC05D03EF458
:101BE000909581959F4F0895709561957F4F0895C9
:101BF000A1E21A2EAA1BBB1BFD010DC0AA1FBB1F11
:101C0000EE1FFF1FA217B307E407F50720F0A21B82
:101C1000B30BE40BF50B661F771F881F991F1A94EF
:101C200069F760957095809590959B01AC01BD0119
:101C3000CF0108955058BB27AA270E94320E0C945A
:101C40000A0F0E94FC0E38F00E94030F20F039F4B6
:101C50009F3F19F426F40C94F90E0EF4E095E7FB7F
:101C60000C94F30EE92F0E941B0F58F3BA1762076A
:101C700073078407950720F079F4A6F50C943D0FBF
:101C80000EF4E0950B2EBA2FA02D0B01B901900197
:101C90000C01CA01A0011124FF27591B99F0593FDB
:101CA00050F4503E68F11A16F040A22F232F342F23
:101CB0004427585FF3CF469537952795A795F04071
:101CC0005395C9F77EF41F16BA0B620B730B840B86
:101CD000BAF09150A1F0FF0FBB1F661F771F881F3E
:101CE000C2F70EC0BA0F621F731F841F48F4879596
:101CF00077956795B795F7959E3F08F0B0CF939588
:101D0000880F08F09927EE0F9795879508950E9400
:101D1000230F88F09F5798F0B92F9927B751B0F04B
:101D2000E1F0660F771F881F991F1AF0BA95C9F75F
:101D300014C0B13091F00E943D0FB1E008950C94B1
:101D40003D0F672F782F8827B85F39F0B93FCCF364
:101D5000869577956795B395D9F73EF490958095DC
:101D6000709561957F4F8F4F9F4F0895E89409C0FC
:101D700097FB3EF490958095709561957F4F8F4FBE
:101D80009F4F9923A9F0F92F96E9BB279395F695D4
:101D9000879577956795B795F111F8CFFAF4BB0F52
:101DA00011F460FF1BC06F5F7F4F8F4F9F4F16C0B6
:101DB000882311F096E911C0772321F09EE8872F40
:101DC000762F05C0662371F096E8862F70E060E0FC
:101DD0002AF09A95660F771F881FDAF7880F969575
:101DE000879597F9089597F99F6780E870E060E01C
:101DF00008959FEF80EC089500240A9416161706A4
:101E000018060906089500240A94121613061406EB
:101E100005060895092E0394000C11F4882352F04E
:101E2000BB0F40F4BF2B11F460FF04C06F5F7F4F06
:101E30008F4F9F4F089557FD9058440F551F59F0ED
:101E40005F3F71F04795880F97FB991F61F09F3FA7
:101E500079F087950895121613061406551FF2CFD0
:101E60004695F1DF08C0161617061806991FF1CF20
:101E700086957105610508940895E894BB27662747
:101E80007727CB0197F908950E94570F0C940A0FFA
:101E90000E94FC0E38F00E94030F20F0952311F0F1
:101EA0000C94F30E0C94F90E11240C943E0F0E9426
:101EB0001B0F70F3959FC1F3950F50E0551F629F64
:101EC000F001729FBB27F00DB11D639FAA27F00D93
:101ED000B11DAA1F649F6627B00DA11D661F829FBA
:101EE0002227B00DA11D621F739FB00DA11D621F9F
:101EF000839FA00D611D221F749F3327A00D611DBC
:101F0000231F849F600D211D822F762F6A2F11249D
:101F10009F5750409AF0F1F088234AF0EE0FFF1FD0
:101F2000BB1F661F771F881F91505040A9F79E3F27
:101F3000510580F00C94F30E0C943E0F5F3FE4F3D8
:101F4000983ED4F3869577956795B795F795E7957D
:101F50009F5FC1F7FE2B880F911D9695879597F986
:061F60000895F894FFCF84
:101F660002FF000000FF000000FF8406F706850759
:101F760013086500400A830AC60A4E0BBD0B2B0CDC
:101F860054005400540054005B002B0B2B0B2B0BFE
:101F960053005300530000010304060708090B0C05
:101FA6000E0F11120303020303033F065B4F666D18
:101FB6007D077F6F4080AC3300BE08003F065B4F55
:101FC600666D7D077F6F40803F065B4F666D7D07C0
:101FD6007F6F40801F0C1463173B3B010113000009
:101FE60000000D0A54696D6520686173206265659D
:101FF6006E207365740D0A000D0A546869732064B7
:10200600617465206973206E6F7420616C6C6F77E4
:102016006564200D0A0030313233343536373839AD
:10202600414243444546005B44454255475D2000D6
:10203600303132333435363738392F3A20000D0AED
:1020460055736520466F726D61743A205B44442F68
:102056004D4D2F595959592048483A4D4D3A5353E9
:102066005D0D0A00082008002E00207C2030780034
:00000001FF
