:100000000C9434000C9451000C9451000C94510049
:100010000C9451000C9451000C9451000C9451001C
:100020000C9451000C9451000C9451000C94E60077
:100030000C9451000C9451000C9451000C945100FC
:100040000C9451000C9451000C9451000C945100EC
:100050000C9451000C9451000C9451000C945100DC
:100060000C9451000C94510011241FBECFEFD8E026
:10007000DEBFCDBF11E0A0E0B1E0E6E0F8E002C0F5
:1000800005900D92A235B107D9F721E0A2E5B1E0C4
:1000900001C01D92AC35B207E1F70E94A3030C9496
:1000A00001040C9400009C011092850010928400C1
:1000B000E0E8F0E0808188608083C901A0E0B0E0E2
:1000C0009C01AD0184E0220F331F441F551F8A9508
:1000D000D1F760E074E284EF90E00E94DF03DA0180
:1000E000C9010197A109B109909389008093880003
:1000F000EFE6F0E0808182608083E1E8F0E08081DB
:10010000826080830895E1E8F0E080818D7F8083C4
:1001100008951F93CF93DF9300D01F92CDB7DEB722
:10012000122F89836A834B83222311F0233059F5E0
:1001300043E0BE016F5F7F4F83E591E00E948F0334
:10014000812F8D7F813041F443E0BE016F5F7F4F8F
:1001500086E591E00E948F031250123040F443E094
:10016000BE016F5F7F4F89E591E00E948F0363E5D9
:1001700071E08FEF0E94DA010F900F900F90DF91E6
:10018000CF911F910895213039F7DECF80958535C5
:1001900040F4682F660F860F23E0482F60E08095BB
:1001A00013C08A3A48F48555682F660F680F462FAA
:1001B000409523E080E008C08A5A682F660F860FBA
:1001C000682F609523E040E00C9489001F920F9205
:1001D0000FB60F9211242F933F934F935F936F931A
:1001E0007F938F939F93AF93BF93EF93FF938091F0
:1001F00052010E94C600809152018F5F809352018C
:10020000FF91EF91BF91AF919F918F917F916F91EE
:100210005F914F913F912F910F900FBE0F901F90C4
:100220001895AC0121E0FA01E20FF11D90819923AC
:1002300069F0261758F480ED890F8A3018F0915430
:10024000963010F42F5FEFCF80E0089581E008959D
:10025000CF92DF92EF92FF92DC0160E070E0CB0181
:1002600030E0FD01E30FF11D20812223C1F040EDBC
:10027000420F4A3030F04FEB420F463080F449ECE9
:10028000420F6B017C0184E0CC0CDD1CEE1CFF1CDA
:100290008A95D1F7C701B601642B3F5FE2CFFF908B
:1002A000EF90DF90CF900895CF93DF93FC012081F2
:1002B000233211F084E024C0EC0160E071E00E9480
:1002C0007103892BE1F0CE010E940B03099791F78E
:1002D000CE010E943F03EC0166E001960E941101ED
:1002E000882341F38F81843429F76DE071E088859C
:1002F0000E941B038823F1F28885805301C083E0AC
:10030000DF91CF910895CF92DF92EF92FF92CF933A
:10031000FC0101961782633049F488EC90E0CF919C
:10032000FF90EF90DF90CF900C945300C62F0E9467
:100330002801AB01BC01CB01AA27BB27C52ED62EB5
:10034000E72EFF24C73021F0C83021F422E003C09B
:1003500021E001C020E06C2DCF91FF90EF90DF9065
:10036000CF900C94890084B18C6284B982E58CBDF5
:1003700008958CB58F7B8CBD08958EBD0DB407FE9E
:10038000FDCF089580E00E94BD0180E00E94BD0184
:1003900080E00E94BD0180E00C94BD018FEF0E94BF
:1003A000BD018FEF0E94BD018FEF0E94BD018FEF55
:1003B0000C94BD01FF920F931F93CF93DF93F82E00
:1003C0008B010E94C201E801075F1F4F8F2D0E9421
:1003D000BD018A810E94BD0189810E94BD01888181
:1003E0000E94BD012396C017D10781F7DF91CF91FD
:1003F0001F910F91FF900C94CE01FF920F931F93CA
:10040000CF93DF93D82FF62E8A010E94C201C0E05D
:10041000DC130EC08F2D0E94BD01F80182810E9465
:10042000BD01F80181810E94BD01F80180810AC0EF
:1004300080EE0E94BD0180E00E94BD0180E00E942C
:10044000BD0180E00E94BD01CF5FC33009F7DF919D
:10045000CF911F910F91FF900C94CE01ECE7F0E04B
:10046000808180648083EAE7F0E080818068808317
:10047000808183608083EEE7F0E08081816080830B
:10048000089580917A00806480937A0080917A0048
:1004900086FDFCCF80917800909179000895E0EC82
:1004A000F0E08081826080831092C50080E18093BB
:1004B000C400E2ECF0E080818083808180838081D1
:1004C0008083808186608083E1ECF0E080818861B8
:1004D000808308959091C00095FFFCCF8093C60063
:1004E00008958091C00087FFFCCF8091C6000895D9
:1004F000CF93DF93EC018991882319F00E946A025F
:10050000FACFDF91CF910895CF93C82FE82FE295CE
:10051000EF70F0E0EC5CFE4F80810E946A02CF70C9
:10052000EC2FF0E0EC5CFE4F8081CF910C946A02DE
:10053000CF92DF92EF92FF920F931F93CF93DF93AF
:100540002AE0C22ED12CE12CF12C6A3071058105F4
:10055000910560F480E3860FDF91CF911F910F9199
:10056000FF90EF90DF90CF900C946A02A701960164
:100570000E94DF038B01D82FC92FCA01B9010E9445
:100580009802B8018D2F9C2FE0CFCF93DF93EC0121
:1005900085E491E00E947802CE010E94780281E316
:1005A00091E0DF91CF910C947802CF92DF92EF929D
:1005B000FF921F93CF93DF937C016B01C0E0D0E0EB
:1005C0000E947102182F8D30B1F08F3741F42097BF
:1005D00071F08EE491E00E947802219708C0CC155A
:1005E000DD0528F4F701EC0FFD1F80832196812F94
:1005F0000E946A02E5CFCE0DDF1D188281E391E0F3
:100600000E947802C701DF91CF911F91FF90EF9078
:10061000DF90CF900895FC019F01281B390B419179
:100620004111FACFC901089590ED980F81E09A30F9
:1006300008F080E0089590E0FB01E90FF11D2081B2
:10064000222321F0281721F09F5FF6CF80E0089544
:1006500081E008950F931F93CF93DF938B01EC01FB
:100660008991882331F0B8010E941B038111F8CFD2
:1006700001C081E0DF91CF911F910F910895AC01EE
:1006800020E0FA01E20FF11D9081992341F08FE9FA
:10069000890F8A3110F4905290832F5FF2CFCA01F4
:1006A0000895680F791F8617970721F0FC011192B2
:1006B000CF01F9CF0895FC01AC014D5F5F4F80E0A1
:1006C0003191332369F0E417F50751F0982F990F12
:1006D000292F220F220F920F9053832F890FF0CFD3
:1006E0000895CF93DF93EC01FB01DC019D012C1BEE
:1006F0003D0B9D91992329F04191442311F09417CA
:10070000A9F3892F990F990BFB01E20FF31F2081A9
:10071000821B910927FD9395DF91CF910895009752
:1007200021F0362FDC01FB0106C061157105C9F708
:1007300080E090E008952E2F231B241718F42191B8
:100740002D93F9CF0895CF93DF93CDB7DEB72F97D1
:100750000FB6F894DEBF0FBECDBF0E94B3010E945A
:100760004F0278946FE070E0CE0101960E94510331
:100770006FE070E0CE0101960E94D502CE01019695
:100780000E945401182F843029F481E191E00E94E5
:100790007802E8CF0E94830081E391E00E94780212
:1007A000612FCE0101960E9483012FEF89EF90E027
:1007B000215080409040E1F700C00000D3CFA1E27B
:1007C0001A2EAA1BBB1BFD010DC0AA1FBB1FEE1FCB
:1007D000FF1FA217B307E407F50720F0A21BB30B16
:1007E000E40BF50B661F771F881F991F1A9469F792
:1007F00060957095809590959B01AC01BD01CF01EE
:060800000895F894FFCFFB
:100806002346554C4C5241494E424F5700363738D5
:1008160000466F726D61743A202352524747424236
:100826004458207C202346554C4C5241494E424F59
:10083600570D0A00303132333435363738394142B4
:1008460043444546005B44454255475D2000082029
:02085600080098
:00000001FF
